:020000040800F2
:10000000A05000205D02000885230008D71C0008CE
:100010004D2300086B090008992A00080000000021
:100020000000000000000000000000009D0100082A
:10003000350A000800000000F90100088F230008BD
:1000400077020008770200087702000877020008AC
:10005000770200087702000877020008770200089C
:10006000770200087702000877020008770200088C
:10007000770200087702000877020008770200087C
:10008000770200087702000877020008770200086C
:10009000770200087702000877020008770200085C
:1000A000770200087702000877020008770200084C
:1000B000770200087702000877020008770200083C
:1000C000770200087702000877020008770200082C
:1000D0007702000877020008812A000877020008EA
:1000E000770200087702000877020008770200080C
:1000F00077020008770200087702000877020008FC
:1001000077020008770200084524000877020008FB
:10011000A127000877020008770200085124000890
:1001200077020008770200087702000877020008CB
:1001300077020008000000000000000077020008BD
:1001400077020008770200087702000877020008AB
:100150007702000877020008770200088D2A00085D
:10016000770200087702000877020008770200088B
:10017000770200087702000800000000000000007D
:100180007702000877020008DFF80CD000F08AFB45
:100190000048004725390008A05000202C4B196862
:1001A0000868B0E8F04F80F30988BFF36F8F4FF015
:1001B000000080F3118870470000000008480068C4
:1001C000006880F308884FF0000080F3148862B65E
:1001D00061B6BFF34F8FBFF36F8F00DF00BF00BF6B
:1001E00008ED00E0DFF80C00016841F470010160E7
:1001F000704700BF88ED00E0EFF30980BFF36F8F19
:10020000134B1A681EF0100F08BF20ED108A20E96A
:10021000F04F106009B44FF0500080F31188BFF325
:100220004F8FBFF36F8F04F035FB4FF0000080F36A
:10023000118809BC19680868B0E8F04F1EF0100F6B
:1002400008BFB0EC108A80F30988BFF36F8F704746
:1002500018000020EFF30580704700000648804733
:1002600006480047FEE7FEE7FEE7FEE7FEE7FEE79B
:10027000FEE7FEE7FEE7FEE73524000889010008F7
:100280002DE9F05F0546002092469B4688460646CB
:10029000814640241BE0284641464746224600F05E
:1002A0001BFA53465A46C01A914110D311461846BC
:1002B000224600F002FA2D1A67EB01084F4622464B
:1002C0000120002100F0F9F917EB00094E41201E32
:1002D000A4F10104DFDC484631462A464346BDE826
:1002E000F09F40EA01039B0703D009E008C9121FF1
:1002F00008C0042AFAD203E011F8013B00F8013BE0
:10030000521EF9D27047D2B201E000F8012B491E0B
:10031000FBD270470022F6E710B513460A460446A2
:100320001946FFF7F0FF204610BD2DE9FE4F80462D
:1003300081EA0300C00F0C46009021F0004123F039
:100340000045B8EB0200A94105D24046214690463F
:100350001C460B46024623F00040104347D0270DB1
:10036000C7F30A00C3F30A510290401A01904028D3
:100370006BDAC3F3130040F4801B0098924620B15F
:100380000023D2EB030A63EB0B0B01985946C0F133
:100390004002504600F091F906460D465046594637
:1003A000019A00F0A9F910EB08006141002487EAE6
:1003B000115284EAE7731A4340D0009A62B3019A5B
:1003C000012A4FEA075215DC001B61EB02014FF0D6
:1003D000004202EA0752CDE90042001C41F58011BB
:1003E00032462B4600F0E0F903B0BDE8F08F4046FE
:1003F0002146F9E7001B61EB0201001C41F5801367
:1004000000185B412018A2F5001747EB030140EAF2
:10041000D570B6196D4111E06D084FEA360645EA10
:10042000C0754FEA0752001B61EB0201001C41F549
:10043000801149084FEA30000019514132462B46DD
:1004400003B0BDE8F04F00F0A0B9009801224000D1
:100450000023D0EB020263EBE073009821464FEAE1
:10046000E074B8EB000061EB0401E9E783F00043BE
:100470005BE781F0004158E72DE9FE4F81EA030474
:1004800004F0004421F0004100944FF0000B23F0F1
:10049000004350EA01045ED052EA03045BD0C3F388
:1004A0000A54C1F30A552C44A4F2F3340194A0FB7E
:1004B0000254C1F3130141F48011C3F3130343F455
:1004C000801301FB024400FB034E840A970A44EAAE
:1004D000815447EA8357A4FB076802958D0A05FB00
:1004E00007854FEA932C04FB0C542705029D4FEA25
:1004F000065847EA1637B5EB08056EEB070C870E72
:10050000920E47EA811742EA8312A7FB0201B6EB7B
:100510000B0164EB00042B0D43EA0C335E1844EB33
:100520001C50DA465146E7FB0201C5F313044FEABB
:100530000B3343EA14534FEA0432019C43EA0603A7
:10054000A4F10C040294009CCDE900B400F02CF955
:1005500003B0BDE8F08F00200146F9E72DE9F04D2A
:1005600081EA030404F0004B21F0004514464FF0EB
:10057000000A23F0004150EA050220D054EA0102AB
:100580001DD0C5F30A570246C5F31303C1F3130088
:10059000C1F30A5640F4801543F48013A7EB060814
:1005A000101BD64608F2FD3873EB050002D308F1A4
:1005B000010801E092185B41B8F1000F03DA002056
:1005C0000146BDE8F08D00204FF4801106468446B8
:1005D0000EE0171B73EB050705D3121B63EB050336
:1005E00006434CEA010C49084FEA300092185B417F
:1005F00050EA0107EDD152EA030012D082EA04006A
:1006000083EA0501084305D0101BAB4106D2012245
:10061000002306E000224FF0004302E06FF00102E9
:1006200053101AEB06004CEB085110EB0A0041EB9B
:100630000B01BDE8F04D00F0A8B80EB5C10F80EA7F
:10064000E0700844CA07002140F233438DE80E00F1
:100650000A460B4600F0A8F803B000BD00F00042C7
:1006600030F000400AD0C10D01F56071C0F31600F2
:1006700042EA0151C2084007114370470020014679
:10068000704701F0004330B421F0004150EA01020C
:1006900006D00A0DA2F56072C1F31301002A02DC34
:1006A00030BC00207047440F44EAC104C100E01888
:1006B00030BC00EBC25000F031B8202A04DB203AF5
:1006C00000FA02F1002070479140C2F1200320FAA5
:1006D00003F3194390407047202A04DB203A21FAA3
:1006E00002F00021704721FA02F3D040C2F120024B
:1006F0009140084319467047202A06DBCB17203A61
:1007000041FA02F043EAE07306E041FA02F3D04016
:10071000C2F1200291400843194670470029A8BF42
:100720007047401C490008BF20F00100704710B41A
:10073000B0FA80FC00FA0CF050EA010404BF10BCCF
:10074000704749B1CCF1200421FA04F411FA0CF1FC
:1007500018BF012121430843A3EB0C01CB1D4FEA35
:1007600000614FEA102042BF002010BC704700EB30
:10077000C35010440029A4BF10BC7047401C49005E
:1007800008BF20F0010010BC704710B5141E73F1B3
:10079000000408DA401C41F1000192185B411A4341
:1007A00001D120F0010010BD2DE9F04D92469B468D
:1007B00011B1B1FA81F202E0B0FA80F22032904633
:1007C000FFF77BFF04460F4640EA0A0041EA0B01AF
:1007D00053465A46084313D0114653EA010019D034
:1007E000C8F140025046FFF777FF05460E465046D7
:1007F00059464246FFF761FF084305D0012004E057
:1008000020463946BDE8F08D0020054346EAE076F3
:100810002C4337430A986305E40AA0EB0800002242
:10082000FD0A44EA47540A3002D500200146E9E7B0
:10083000010510196941DDE9084500196941BDE864
:10084000F04DA2E770B521F0004303430CD0C1F393
:100850000A550024D5EB040564EB0403D617AD1A42
:10086000B34102DB0020014670BD201841EB02516C
:1008700070BD000030B5041E71F1000404DB4FF0C0
:100880000044404264EB0101141E73F1000405DBD7
:100890001C464FF00043524263EB0403994208BFE9
:1008A000904230BD064C074D06E0E06840F0010381
:1008B00094E8070098471034AC42F6D3FFF768FC81
:1008C00090540008B05400082DE9F04D00231A465A
:1008D0001B1A8A4103DB00200146BDE8F08DC1F3FD
:1008E0000A52C1F3130141F480154FF0000BD107F8
:1008F00002D100186D41521E0027044640F2FF113C
:10090000384601EB620A3E468046024600204FF41C
:100910008011FFF7E1FEC2197141BB1846EB0100DF
:10092000B4EB030C75EB000C04D3E41A65EB000583
:1009300017460E46241908F101006D4180463428FF
:10094000E3DDF91946EB0600091BA84103D24FF07D
:10095000FF32134601E0002213461BEB070046EB73
:100960000A51BDE8F04DFFF710BFFEE710B50024B7
:100970002DED028B9FED088AB0EE480AF0EE401A8A
:10098000B0EE401AF0EE400A01F0D8FB641CC82C0F
:10099000F2DDBDEC028B10BD0000000070B500243C
:1009A0002DED048B44EA036343EA02429FED1E9B54
:1009B00042EA0124044302D54FF0FF3500E001254F
:1009C000C4F3C7507F38FFF738FE41EC110BC4F376
:1009D000160000EE100A9FED162AF8EE400A80EE8F
:1009E000820AF7EE000A30EE208AB0EE490AF0EEF5
:1009F000690A02F07DF8B0EE409A00EE105AF0EE6F
:100A0000609AB8EEC00A20EE080A10EE100AFFF74E
:100A100025FE53EC192BFFF72FFDFFF732FEBDEC3F
:100A2000048B00EE100A70BD0000000000000040C2
:100A3000FEFFFF4A704772B6FEE72DE9F04104461B
:100A4000876D00F04DF9064694F835000025022820
:100A500006D08020606584F834500120BDE8F08124
:100A60002068016821F0160101602068416921F0C9
:100A700080014161206C08B9A06C20B12068016838
:100A800021F0080101602068016821F00101016086
:100A90000CE000F025F9801B052807D920206065AF
:100AA000032084F8350084F83450D7E720680068C4
:100AB000C007EED194F85C103F208840B860012058
:100AC00084F8350084F834500020C7E790F83510DA
:100AD000022903D08021416501207047052180F85B
:100AE00035100068016821F00101016000207047A5
:100AF0002DE9F84FDFF8BCA10022012503264FF0B5
:100B00000F090AF1040BAAF1040E00BF0B6805FAE5
:100B100002F42340A34270D10F7907F00307012F9D
:100B200001D0022F16D187684FEA420806FA08FC66
:100B300027EA0C07D1F80CC00CFA08FC4CEA070CA9
:100B4000C0F808C04768A7430C79C4F30014944068
:100B50003C4344600C79E443A4070AD0C4684FEADC
:100B6000420C06FA0CF7BC438F6807FA0CF72743D0
:100B7000C7600C7904F00304022C12D1D40800EBF6
:100B8000840CDCF820405707FF0E09FA07F824EA26
:100B90000804D1F8108008FA07F848EA0408CCF8ED
:100BA000208004684FEA420C06FA0CF7BC430F7928
:100BB00007F0030707FA0CF7274307604C6814F4A3
:100BC000403F70D03C4C276847F48047276024683A
:100BD00022F0030704F480440094384C07EB040C23
:100BE000DCF8084897074FEA177809FA08F7BC437A
:100BF000334FB84202D1002724E054E0314FB842CD
:100C000001D101271EE0304FB84201D1022719E07F
:100C10002E4FB84201D1032714E02D4FB84201D125
:100C200004270FE02B4FB84201D105270AE02A4FD5
:100C3000B84201D1062705E0284FB84201D1072765
:100C400000E0082707FA08F72743CCF80878DAF815
:100C500000405746D1F804C09C435FEACC2C00D535
:100C60001C433C60DBF800405F46D1F804C09C4365
:100C70005FEA8C2C00D51C433C60DEF800407746D0
:100C8000D1F804C09C435FEA8C3C00D51C433C6017
:100C9000084F083F3C68D1F804C09C435FEACC3C55
:100CA00000D51C433C60521C102AFFF42FAFBDE856
:100CB000F88F0000083C01404438024000300140F9
:100CC000000002400004024000080240000C024004
:100CD000001002400014024000180240001C0240B4
:100CE00001488068704700000800002002488168C1
:100CF0000278114481607047080000200B4810B54D
:100D0000016841F400710160016841F48061016093
:100D1000016841F480710160032000F09FF80F200A
:100D200000F006F800F050F8002010BD003C024032
:100D300030B505461F4887B00024016841F0200106
:100D40000160006806A900F02000009001A800F0F2
:100D500031F90498A8B100F04DF940001649174A3E
:100D6000B0FBF1F11648491E026040F2E732C0E9DB
:100D70000324C0E90114846100F08CFB040003D05B
:100D800015E000F037F9E9E70D4800F0DBFB04005F
:100D90000DD1372000F034F8102D07D2002229465B
:100DA000372000F03BF80748056000E0012407B059
:100DB000204630BD4038024040420F000014004041
:100DC0002C0200200C0000200C4882B0016841F485
:100DD00080410160006800F4804000900748001FD7
:100DE000016841F0805101600068002200F08050ED
:100DF00000900F21901E02B000F010B8443802405D
:100E0000002809DB00F01F02012191404009800009
:100E100000F1E020C0F8001170470000F0B40E4B64
:100E20001B680C46C3F30223C3F10705042D00D948
:100E30000425191D072901D2002300E0DB1E01262D
:100E400006FA05F1491E214099409E40761E164043
:100E50003143F0BC01F039BE0CED00E0064900F072
:100E6000070208684FF6FF03184040EA0220034AD1
:100E700010430860704700000CED00E00000FA0528
:100E80002DE9F0470E46050065D0DFF81481D8F84B
:100E90000000F7B200F00700B04207D288F80070F7
:100EA000D8F8000000F00700B04254D128683D4C4B
:100EB000810712D5400703D5206840F4E050206038
:100EC0002878000703D5206840F46040206020683F
:100ED000A96820F0F000084320602878C0072DD0D2
:100EE000304968680839012812D0022813D0032835
:100EF00011D00968890700292DDA216821F0030142
:100F000001432160FFF7ECFE814641F2883A0EE092
:100F100009688903EFE709688901ECE7FFF7E0FE5C
:100F2000A0EB0901514502D90320BDE8F0872068F4
:100F3000696800F00C00B0EB810FEFD1D8F8001019
:100F4000404601F00701B14207D90770006800F080
:100F50000700B04201D00120E7E72878400705D517
:100F60002068E96820F4E0500843206028780007F2
:100F700006D52068296920F4604040EAC10020605D
:100F800000F058F82168084AC1F30311515CC840C9
:100F90000649086006480068FFF7CAFE0020C4E75B
:100FA000003C024008380240D053000814000020E2
:100FB0000C0000200F2202600C4A136803F00303A8
:100FC0004360136803F0F0038360136803F4E05395
:100FD000C36012684FF4E05303EAD202026104488E
:100FE000006800F007000860704700000838024001
:100FF000003C02400448054900680968044AC1F3FE
:101000008221515CC840704714000020083802401B
:10101000E05300080448054900680968044AC1F320
:101020004231515CC840704714000020083802402B
:10103000E0530008154810B5006810F00C02144881
:1010400013D04110042A0FD0082A0ED10F4C241FB0
:101050002268236802F03F025B0207D52068C0F3D4
:101060008810A0FB010106E0084610BD2168C1F30D
:101070008811A1FB00010023FFF702F92168C1F3E9
:101080000141491C4900B0FBF1F010BD0838024095
:101090000024F4002DE9F84F04006ED02078DFF82A
:1010A0004C93C007A9F104054AD009F10400016876
:1010B000C1F38101012908D00068C0F38100022832
:1010C0000AD1D9F80000400206D52868800337D538
:1010D00060680028E1D033E06068B0F5803F10D050
:1010E000B0F5A02F286810D020F480302860286840
:1010F00020F4802028606068A8B1FFF7F1FD064663
:101100000DE0286840F48030F4E740F48020286047
:10111000F7E700BFFFF7E4FD801B642873D8286859
:101120008003F7D50CE0FFF7DBFD064605E000BFC6
:10113000FFF7D6FD801B6428F0D828688003F7D419
:101140002078DFF8AC8280074FF0000A3ED5A74830
:10115000001D016811F00C0F08D00068C0F3810079
:1011600002280BD1D9F80000400207D42868800774
:1011700016D5E068012800D112E033E1E068B8B18B
:101180000120C8F80000FFF7ABFD064605E000BFF0
:10119000FFF7A6FD801B0228C0D828688007F7D576
:1011A0002868216920F0F80040EAC10028600DE0BD
:1011B000C8F800A0FFF794FD064604E0FFF790FD95
:1011C000801B02281FD828688007F7D420780007E2
:1011D00022D5864F87486169703771B1012101605E
:1011E000FFF77EFD064604E0FFF77AFD801B02282C
:1011F00009D838688007F7D50EE0C0F800A0FFF7DF
:101200006FFD064605E082E0FFF76AFD801B0228BD
:101210007DD838688007F7D42078400768D5DFF894
:10122000CCB100270BF13C0BDBF80000C0000BD465
:10123000DBF8001041F08051CBF80010DBF8000023
:10124000012700F0805000906B4E3068C00510D42C
:10125000306840F480703060FFF742FD009005E098
:10126000FFF73EFD0099401A022850D83068C005AB
:10127000F6D55E4EA0686C3601280FD00528306880
:1012800010D020F001003060306820F004003060A1
:10129000A068B8B1FFF724FD00900FE0306840F07F
:1012A0000100F4E740F004003060F7E7FFF718FDB5
:1012B0000099411A41F28830814266D8306880072F
:1012C000F4D50EE0FFF70CFD009007E0FFF708FDF6
:1012D0000099411A41F28830814256D8306880071F
:1012E000F4D42FB1DBF8001021F08051CBF80010BE
:1012F000A069C8B33D49091D0968C1F381010229EC
:101300004AD00228504607D0C8F8600000E03CE010
:10131000FFF7E6FC04463BE04746C8F86000FFF7ED
:10132000DFFC064605E000BFFFF7DAFC801B022861
:101330002BD828688001F7D4D4E907010843A16AB3
:101340002E4A490802EB0141626A41EA82110843D0
:1013500094F82C1040EA0161C9F8001001203866A9
:10136000FFF7BEFC044606E03EE000BFFFF7B8FC16
:10137000001B022809D828688001F7D534E000BF97
:10138000FFF7AEFC001B022802D90320BDE8F88F4E
:1013900028688001F4D427E00128F7D0D9F80000AC
:1013A000E26900F4800191421CD1226A00F03F0101
:1013B000914217D147F6C071626A0140B1EB821FBA
:1013C00010D1A26A4FF0FF3300F4403103EB520218
:1013D000B1EB024F06D194F82C1000F07060B0EB26
:1013E000016F01D00120D1E70020CFE7043802408F
:1013F00000004742800E4742007000400000FFFF9F
:101400007047704770B590F83C20012A32D0012413
:1014100080F83C40022280F83D2003685A689D68AD
:1014200022F070060A6832435A60134B02689A42EF
:1014300014D0B2F1804F11D0104B9A420ED0104B05
:101440009A420BD00F4B9A4208D00F4B9A4205D0CC
:101450000E4B9A4202D00E4B9A4204D1496825F0B5
:1014600080031943916080F83D40002180F83C10D2
:10147000084670BD022070BD00000140000400401D
:1014800000080040000C0040000401400040014002
:101490000018004010B5040003D094F83D0010B1CE
:1014A00007E0012010BD002084F83C00204600F039
:1014B0001FF8022084F83D00211D206800F0CEFFB7
:1014C000012084F8460084F83E0084F83F0084F848
:1014D000400084F8410084F8420084F8430084F816
:1014E000440084F8450084F83D00002010BD000051
:1014F00008B5114A01681148914211D1016841F0C3
:10150000080101600068002200F008000090062138
:101510003220FFF783FCBDE808403220FFF770BCA3
:10152000074A914207D1016841F01001016000684B
:1015300000F01000009008BD000C00404038024050
:101540000010004090F83D10012901D001207047A3
:10155000022180F83D100168CA6842F00102CA60A9
:1015600000681149884214D0B0F1804F11D00F4962
:1015700088420ED00E4988420BD00E49884208D0CE
:101580000D49884205D00D49884202D00C49884255
:1015900004D1816801F00701062903D0016841F0F8
:1015A000010101600020704700000140000400407C
:1015B00000080040000C00400004014000400140D1
:1015C0000018004070B5044690F83C000025012842
:1015D00017D0012684F83C60022084F83D00206882
:1015E000826822F0770222F47F42826008685028E5
:1015F00038D00DDC20284FD005DC90B3102811D155
:101600004AE0022070BD302846D040280AD13BE095
:1016100060282FD070280DD0B0F5805F03D0B0F5D2
:10162000005F12D0012584F83D60002084F83C0062
:10163000284670BDCB68D1E90121206800F07AFF0F
:101640002068816841F0770109E0CB68D1E9012188
:10165000206800F06FFF2068816841F4804181605C
:10166000E1E719E0CA684968206800F075FF502179
:10167000206806E0CA684968206800F07EFF6021A3
:10168000206800F061FFCEE7CA684968206800F072
:1016900063FF40212068F4E7226801461046F0E726
:1016A00070472DE9F04104460068C66805694FF0AF
:1016B0000007A90713D5B10711D5F91E0161012053
:1016C0002077206880698007204602D0FFF7E8FF76
:1016D00004E000F07EF8204600F07CF827776807E9
:1016E00016D5700714D521686FF004000861022038
:1016F00020772068806910F4407F204602D0FFF7F1
:10170000CFFF04E000F065F8204600F063F827778B
:10171000280715D5300713D521686FF00800086138
:10172000042020772068C0698007204602D0FFF798
:10173000B7FF04E000F04DF8204600F04BF82777A3
:10174000E80616D5F00614D521686FF01000086180
:10175000082020772068C06910F4407F204602D01E
:10176000FFF79EFF04E000F034F8204600F032F866
:101770002777E80708D0F00706D021686FF001004E
:101780000861204600F028F8280608D5300606D55E
:1017900021686FF0800008612046FFF731FE68067F
:1017A00008D5700606D521686FF040000861204614
:1017B00000F028F8A8060AD5B00608D521686FF011
:1017C000200008612046BDE8F041FFF71ABEBDE8E1
:1017D000F08170477047000010B504460068074963
:1017E000884201D100F0DCFE05492068884203D11F
:1017F000BDE81040FFF77ABA10BD0000000C0040B1
:10180000001400407047704770470000F8B5016849
:1018100004460868CA684B6910F00F0F4FF00005C6
:1018200059D003F0010602F49077374365D0C10721
:1018300005D0D10503D5616C41F001016164410718
:1018400005D5D90703D0616C41F0020161648107BD
:1018500005D5D90703D0616C41F00401616401072B
:1018600007D502F02001314303D0616C41F008013B
:101870006164616C00293AD0800604D5900602D5D7
:10188000204600F0C2FF20684069616CC0F3801000
:10189000090700D460B3204600F090FF206840693B
:1018A000400621D52068143050E8001F21F0400187
:1018B00040E80012002AF5D1E06BA8B16E4901653D
:1018C000E06BFFF703F9002811D0E06B016D01B068
:1018D000BDE8F040084783060FD593060DD5204696
:1018E000BDE8F84000F091BF2046FFF78DFFF8BD3E
:1018F0002046FFF789FF6564F8BD266B2023012E83
:101900007DD1C6067BD5D60679D508684868009093
:1019100048694FF00206400641D5E16B086840680F
:101920000004000CE8D0A28D8242E5D9E085C869A8
:10193000B0F5807F2DD020680C3050E8001F21F4D6
:10194000807140E80012002AF5D12068143050E878
:10195000001F21F0010140E80012002AF5D12068A3
:10196000143050E8001F21F0400140E80012002A26
:10197000F5D184F84230256320680C3050E8001F10
:1019800021F0100140E80012002AF5D1E06BFFF7CA
:1019900054F86663A08DE18D401A81B22AE0A08DD3
:1019A000E18D401A81B2E08D0028A5D00029A3D096
:1019B00022680C3252E8000F20F4907042E80007D1
:1019C000002FF5D12068143050E8002F22F00102DA
:1019D00040E80027002FF5D184F8423025632068C5
:1019E0000C3050E8002F22F0100240E80023002BBA
:1019F000F5D166632046FFF706FFF8BDFFE7050651
:101A00002BD5150629D594F841002128F5D1A068D9
:101A1000B0F5805F01D12069B0B1206A411C21621C
:101A2000216800784860E08C401E0004000CE084CF
:101A3000E3D12068C16821F08001C1602068C168DD
:101A400041F04001C160D8E7206A0088C0F3080077
:101A50004860206A801C2062E5E74006CDD550062C
:101A6000CBD5CA68204622F04002CA6084F84130D3
:101A700000F030F9C1E70000AD27000870B50400A0
:101A800004D094F84100002510B106E0012070BD9B
:101A900084F84050204600F023F8242084F84100C8
:101AA0002068C16821F40051C160204600F00EFF9B
:101AB0002068016921F4904101612068416921F0A9
:101AC0002A0141612068C16841F40051C160656428
:101AD000202084F8410084F842006563002070BD36
:101AE000F0B587B0044614216846FEF713FC3E4962
:101AF000DFF8F0C0276800223B4B10390324022591
:101B000008263A4867451ED11F6847F400271F6022
:101B10001B6803F4002305930B6843F001030B607B
:101B20000968CDE9004501F00101CDE90461CDE985
:101B300002246946FEF7DCFF002205213420FFF76E
:101B40006DF9342023E0DFF8A8C0674523D11E6873
:101B500046F400361E601B6803F4003305930B68DF
:101B600043F001030B600968029201F00101059145
:101B70000C21CDE900150721CDE903416946FEF7A7
:101B8000B7FF002205212620FFF748F92620FFF79E
:101B900037F907B0F0BD17488742FAD11248001D47
:101BA000036843F020030360006800F02000059004
:101BB000086840F004000860086802AB00F0040008
:101BC0000590C020CDE9000583E8540069460A4825
:101BD000FEF78EFF002205214720FFF71FF947205F
:101BE000D5E70000004C00404038024000000240B1
:101BF00000440040001401400008024090F84230C8
:101C0000202B01D00220704721B11AB100230363B9
:101C100000F0E2BE0120704710B501220449FFF731
:101C2000EDFF0348801E8078BDE8104000F0D2B878
:101C30009A0000202DE9F843044690F841009846A8
:101C400016460D46202802D00220BDE8F88385B153
:101C50007EB100206064212084F84100FFF740F845
:101C6000A6848146E684A0682027B0F5805F02D074
:101C700003E00120E9E7206910B12E4600250EE0BF
:101C800000260CE08021204600F0C1FEA8B9C6B1B4
:101C900016F8010B21684860E08C401EE084E08C5F
:101CA0004B464FF00002CDF800800028EAD14FF0FB
:101CB0004001204600F0ABFE40B184F841700320A3
:101CC000C3E735F8020BC0F30800E3E784F841707E
:101CD0000020BAE77047FEE72DE9F04106462DEDFA
:101CE000068B41F288309FED319BDFED328A01F0A7
:101CF00049FE314D00244FF4FA7700BF96ED058A76
:101D000018EE100AFEF7AAFC53EC192BFEF70DFB98
:101D100095ED050A41EC190B85ED058A38EE400A70
:101D2000012070EE288A01F02DFE641CBC42E5DB28
:101D300051EC190B9FED210B53EC102BFEF70EFC11
:101D4000DFED200A41EC190B88EEA00A10EE100A14
:101D5000FEF784FC9FED1CAB53EC1A2BFEF78CFBBB
:101D6000FEF78FFC1A4C00EE100A84ED0A0AD5ED3E
:101D7000080A20EE200A10EE100AFEF76FFC41EC74
:101D8000180B51EC190BFEF77CFCFEF767FC53ECCB
:101D90001A2BFEF771FB53EC182BFEF767FBFEF7CF
:101DA00070FC6062BDEC068BBDE8F08100000000B5
:101DB000000000000000000098000020000000006B
:101DC00000407F400000FA436666666666A64C40A7
:101DD000484B00202DE9F041264C254D0127E178A4
:101DE000002668542279FD2A02D12A78FC2A00D0E4
:101DF00089B1491CE1706978402902D0412905D098
:101E00000AE0A978382907D1677105E0A978302957
:101E100002D1A77100E0E6702071607901280ED12F
:101E2000E07840280BD1E6706671A76095F83F0016
:101E3000FD2804D140220E490F48FEF752FAA0793E
:101E4000012813D1E078382810D1E670A671E76038
:101E500095F83700FD2804D1402205490748FEF7D0
:101E600040FA00202E54401C4028FBD3BDE8F081EE
:101E7000E84B002098000020284C0020684C0020EF
:101E80002DE9F04104462DED068B0026DFED808A1A
:101E90008049814DDFF804E291ED050AD5ED060A8F
:101EA0002B46012730EE601A186993ED089A3246E6
:101EB000B0EEC11A11EE10CAF44505DAC1ED050AFB
:101EC0006B78012643B123E0F0EE400AC5ED060A27
:101ED000401C28616A701CE0052818DB00EE900A9F
:101EE000B0EE681AF8EEE01AC1EE210A80EE891A07
:101EF000DFED6B0A6B4861EE200AC4ED0A0AD4EDEF
:101F0000090A90ED0A1A41EE490AC4ED090A2A614C
:101F10006F7085ED070A4869FEF7A0FB9FED621B15
:101F200053EC112BFEF7A8FAFEF7ABFB00EE100AFC
:101F300084ED020A9FED5E8AB5EEC00AF1EE10FA5A
:101F40000DDDD4ED090A30EE601AB5EEC01AF1EEDF
:101F500010FA04D278EE600A30EE800A03E0D4ED85
:101F6000090A30EE600A84ED020A2EB1D4ED0A0AA5
:101F700009EE600A84ED020A287870B110EE102A8A
:101F80004C494D488A420ADAD4ED060A10EE902AEE
:101F9000824204DD30EE080A10E02F7012E010EEED
:101FA000102A824208DDD4ED060A10EE900A88421B
:101FB00002DA30EE480A01E0D4ED060A30EE600A9B
:101FC00084ED070A94ED0B0AD4ED060A30EE609A10
:101FD00084ED0B9AA668A661D4ED080A94ED070A71
:101FE00070EE800AC4ED080A2878012808D1022082
:101FF000287010EE900A3149884201DDC4ED088A4C
:10200000B5EEC00A10EE100AF1EE10FA06DBFEF78C
:1020100025FB41EC100B9FED2A1B05E0FEF71EFB94
:1020200041EC100B9FED281B51EC100B53EC112BC6
:10203000FEF722FA41EC1A0B3046FEF70FFB53EC89
:102040001A2BFEF772F941EC1A0B19EE100AFEF783
:1020500005FB53EC1A2BFEF768F9FEF712FB00EEB6
:10206000100AE06210EE100A1949884203DD30EED2
:10207000480A84ED0B0AB5EEC00AF1EE10FA03D25D
:1020800030EE080A84ED0B0ABDEC068BBDE8F0814A
:1020900000000000B04B0020980000206F12833A2F
:1020A00033336542484B00206666666666A64C4040
:1020B0000000B443000020410000AF4300009643FD
:1020C000FCA9F1D24D62403F091B9E5E29CB403FE7
:1020D0000000B4439FED150A002180ED010A80ED58
:1020E000000A80ED020A80ED040A80ED030A80ED0B
:1020F000070A80ED060A80ED050A80ED090A80EDE9
:10210000080A80ED0B0A0A4801700A490968C96A81
:102110004FF47A72491CB1FBF2F100EE101AB8EEDE
:10212000400A80ED080A0448FFF7D6BD0000000011
:1021300098000020C4000020B04B002010B50523FB
:102140002DED040B042269460D48FFF773FD0523AE
:10215000042201A90A48FFF76DFD0523042202A904
:102160000748FFF767FD0523042203A90448FFF78A
:1021700061FD0523042203490148FFF75BFD1FBDF4
:1021800054010020BC00002010B5074A0021074878
:1021900001F038FC064C044A002120602432054836
:1021A00001F030FC606010BD8853000887230008F0
:1021B00000000020512300080D4808B5016841F0D7
:1021C00080010160016801F080010091016841F027
:1021D00001010160016801F001010091016841F015
:1021E00004010160006800F00400009008BD0000D8
:1021F0003038024010B586B000241748009401948E
:102200000294039404941349059401602321C0E9C6
:10221000011441F28731C0E9031480218161FFF785
:1022200039F908B1FEF707FC4FF480500090694679
:102230000948FFF7C7F908B1FEF7FDFB049404A9AC
:1022400005480594FFF7DEF8002801D0FEF7F3FB00
:1022500006B010BD000C0040C40000201CB50024D6
:102260000E4800940C49019401602321C0E9011437
:102270004FF6FF718461C160FFF70CF908B1FEF7FA
:10228000DAFB0094694605480194FFF7BBF8002883
:1022900001D0FEF7D0FB1CBD001000400C01002057
:1022A0000C4810B50A4901604FF4165141600021F5
:1022B00081600C22C160C0E904128161C161FFF735
:1022C000DDFB002803D0BDE81040FEF7B4BB10BD15
:1022D000004C0040540100200C4810B50A49016030
:1022E0004FF4E1314160002181600C22C160C0E9FE
:1022F00004128161C161FFF7C1FB002803D0BDE872
:102300001040FEF798BB10BD004400409C01002027
:102310000D4810B50B4901604FF4E13141600021D7
:1023200081600C22C160C0E9041281614FF4004158
:10233000C161FFF7A3FB002803D0BDE81040FEF702
:102340007ABB10BD00140140E4010020FEE700004C
:102350000A48FFF7BFFEFEF709FB084C084D00BF17
:10236000D4ED0B1A95ED001AD4ED080A94ED020A8B
:10237000FFF7E4FE052002F0CFF9F1E7484B00201B
:10238000B04B0020FEE7012001F0FCFAFBE710B59E
:102390004FF0E020006902F02DFE012803D0BDE8D7
:1023A000104002F02FBB10BD30B593B0302168460D
:1023B000FDF7B0FF14210CA8FDF7ACFF1B4800256A
:1023C000016841F080510160006800F08050119078
:1023D0001748016841F4804101600068022400F45C
:1023E0008040119001200090000401908001CDE90F
:1023F000064008AA0420482182E813000B90684692
:10240000FEF748FE08B172B6FEE70F20CDE90C04D6
:102410008020CDE90E0501210CA81095FEF730FDB6
:10242000002801D072B6FEE713B030BD403802403C
:10243000007000400248016841F47001016070477B
:1024400088ED00E00148FFF72CB90000C40000202F
:102450000148FFF726B900002C020020F0B5026801
:10246000294C2A4D2A4E2B4F2B4B4FF0804CA0422B
:1024700009D0604507D0A84205D0B04203D0B84289
:1024800001D0984204D122F0700E4A6842EA0E024E
:10249000A0421BD0604519D0A84217D0B04215D039
:1024A000B84213D0984211D01C4DA8420ED01C4DFA
:1024B000A8420BD01B4DA84208D01B4DA84205D006
:1024C0001A4DA84202D01A4DA84203D122F44075F9
:1024D000CA682A434D6922F080022A4302608A6852
:1024E000C2620A688262A04201D0984201D10969A1
:1024F0000163012141610169C90703D0016921F02C
:1025000001010161F0BD0000000001400004004035
:1025100000080040000C0040000401400040014061
:10252000004401400048014000180040001C0040E9
:102530000020004010B5846842EA032224F47F445E
:102540000A432243826010BD826822F070020A436F
:1025500042F007018160704710B5036A046A24F0F5
:1025600001040462846924F0F00444EA021423F0B4
:102570000A020A438461026210BD10B5036A046A4C
:1025800024F010040462846923F0A00324F470444E
:1025900044EA023243EA01118261016210BD000087
:1025A0002DE9FF41784D0026E868012877D1774C66
:1025B0006078412872D1A07830286FD114F80A3F92
:1025C00014F8012C14F8021C14F8030CFEF7E6F9B9
:1025D0006F4F87ED000A2379E278A1786078FEF7E3
:1025E000DDF987ED010A237AE279A1796079FEF7B6
:1025F000D5F987ED020A237BE27AA17A607AFEF7A9
:10260000CDF987ED030A237CE27BA17B607BFEF79B
:10261000C5F987ED040A237DE27CA17C607CFEF78E
:10262000BDF987ED050A237EE27DA17D607DFEF781
:10263000B5F987ED060A237FE27EA17E607EFEF774
:10264000ADF987ED070A94F82030E27FA17F607F23
:10265000FEF7A4F987ED080A94F8243094F82320B3
:1026600094F8221094F82100FEF798F987ED090AF2
:1026700094F8290094F82C3094F82B2094F82A1020
:102680008DE80F0094F8283094F8272094F826104D
:1026900094F8250001F0F5FEC7E90A01EE60A8688C
:1026A00001286AD13B4C6078402865D1A078382851
:1026B00062D114F80A3F14F8012C14F8021C14F823
:1026C000030CFEF76BF9344F87ED000A2379E278AB
:1026D000A1786078FEF762F987ED010A237AE27942
:1026E000A1796079FEF75AF987ED020A237BE27A35
:1026F000A17A607AFEF752F987ED030A237CE27B28
:10270000A17B607BFEF74AF987ED040A237DE27C1A
:10271000A17C607CFEF742F987ED050A237EE27D0D
:10272000A17D607DFEF73AF987ED060A237FE27E00
:10273000A17E607EFEF732F987ED070A94F820301B
:10274000E27FA17F607FFEF729F987ED080A94F800
:10275000310094F8343094F8332094F832108DE836
:102760000F0094F8303094F82F2094F82E1094F83D
:102770002D0001F086FE3863AE600848FFF780FB4D
:1027800004B00020BDE8F08198000020684C0020D3
:10279000B04B0020284C0020784B0020484B0020F4
:1027A0000148FFF733B800005401002010B5806BDA
:1027B0000021C185C184FFF727F810BD01680C31E5
:1027C00051E8002F22F4907241E80023002BF5D14C
:1027D0000168143151E8002F22F0010241E8002382
:1027E000002BF5D1016B012909D101680C3151E8A9
:1027F000002F22F0100241E80023002BF5D1202108
:1028000080F8421000210163704708B590F842102B
:10281000222901D0022008BD82684FF480539A42D9
:1028200001D1016921B1816A9A421BD04AB10AE003
:102830000268816A5268C2F308020A80816A891CB0
:1028400008E0026972B10268526802F07F020A7001
:10285000816A491C8162C18D491E0904090CC18528
:1028600003D01BE002685268F1E70168CA6822F0F1
:102870002002CA600168CA6822F48072CA600168D6
:102880004A6922F001024A61202180F842100021A9
:102890004163026B012A03D0FFF7BEF9002008BD97
:1028A000016301680C3151E8002F22F0100241E869
:1028B0000023002BF5D101680A68D20602D50A6808
:1028C00049680091818DFEF79EFFE7E770B50446E9
:1028D00000680169E26821F44051114301612169F6
:1028E000A068E26908436169114308432168CA6826
:1028F00049F20C639A430243CA6020684169A269A5
:1029000021F440711143416131492068884202D06D
:102910003049884202D1FEF77DFB01E0FEF76AFBF9
:10292000E2690023192164253226B2F5004F62685E
:1029300028D0A0FB0101930F9200FDF7A1FC0146F6
:10294000B0FBF5F06FF01802504301EB800006EB8E
:102950000010B0FBF5F000F0F002B1FBF5F002EB77
:102960000012B1FBF5F06FF01803584301EB800043
:1029700006EB0010B0FBF5F000F00F0021681044EA
:10298000886070BDA0FB010192185B41FDF778FCE7
:102990000146B0FBF5F00201B1FBF5F06FF0180352
:1029A000584301EB800006EBC000B0FBF5F000F0EF
:1029B000F80002EB4002B1FBF5F0584301EB800058
:1029C00006EBC000B0FBF5F000F00700D6E7000012
:1029D000001001400014014081628285C2850021FF
:1029E0004164222180F84210016921B10168CA685E
:1029F00042F48072CA6001684A6942F001024A6189
:102A00000068C16841F02001C160002070472DE9D5
:102A1000F843984617460D460446089E24E0701C6D
:102A200022D0FEF75DF9A0EB0800B0421AD8CEB173
:102A30002068C168490717D5802D15D0402D13D0C7
:102A40000168C94309070FD4016800254068009058
:102A50002046FFF7B3FE0820606484F84050012050
:102A6000BDE8F8830320FBE72068006835EA000032
:102A700004D00020B842D2D00020F1E70120F9E7CD
:102A80000148FEF7C3BE00009C0100200148FEF78C
:102A9000BDBE0000E4010020FEE703B40198410040
:102AA000009850EAC12018BF04204A0D18BF40F01A
:102AB000010040F2FF72B2EB515F08BF40F002002C
:102AC000012808BF052002B070470907090E002839
:102AD00004DB00F1E02080F80014704700F00F00E4
:102AE00000F1E02080F8141D704700000000000095
:102AF0002DE9F04D2DED040B2DED0E8B96B0DDE99B
:102B00002550279CDDF890A025F0004624F00048D1
:102B1000BAF1000F14BF0121002101EB4502FC496D
:102B200053184A1093422AD3002814BF01230023CC
:102B300003EB44030B44F7498B4220D358EA0001CE
:102B40009FEDF59B76D0DFF8D8B35D4503D1BAF1A0
:102B5000000F05D188E0BAF1000F08BF002100D0B6
:102B6000012101EB450111F5001F08D8002814BF11
:102B70000121002101EB440111F5001F0BD99DED4E
:102B8000261B9DED240B16B0BDEC0E8B04B0BDE8EA
:102B9000F04D00F069BE0027002DBCBFE14988451B
:102BA00021DAE1498845A8BF02271CDAC3451ADCAF
:102BB000DE4901EB2851142908DDC1F1340220FA65
:102BC00002F101FA02F282420DD108E058B9C1F1D6
:102BD000140228FA02F101FA02F2424503D101F08F
:102BE0000101C1F1020756EA0A0124D1002C22DAC0
:102BF000002D18BF022F01D0012F0AD0022000F0B3
:102C00007FFE16B0BDEC0E8B04B0BDE8F04D00F0B9
:102C100013BE022000F074FE00F00EFE51EC100B0B
:102C200081F0004141EC100B16B0BDEC0E8B04B0EE
:102C3000BDE8F08D18E09FEDBEAB9FEDBF8B002887
:102C400071D1B848804522D105F1804010F580103F
:102C500008BFBAF1000F07D0B3450ADC002CA8BFAB
:102C60009DED260BE0DA0DE0B0EE490AF0EE690AC0
:102C7000DAE7002C06DA9DED260B51EC100B81F003
:102C800000416FE0AE48784490ED000BCCE7D845AA
:102C90004DD1002C48DA2EB186423AD1BAF1000F5C
:102CA00042D126E0BAF1000F13D0022000F028FE36
:102CB00000F0F6FD8DED020B9DED240B8DED000B6C
:102CC00010EE900A039961F31E0003909DED020B34
:102CD000AAE78DED02AB9DED240B1AEE901A10EED3
:102CE000900A8DED000B61F31E0003909DED020B29
:102CF0009AE78DED028B9DED240B18EE901A10EEE5
:102D0000900A8DED000B61F31E0003909DED020B08
:102D10008AE709DA9DED240B51EC190B53EC102BCB
:102D2000FDF71CFC1EE020E09DED240B7CE78642B5
:102D30001BDAB4F1804F0DD0A4F10050B0F1FF5078
:102D400013D1002D11DB9DED240B51EC100B01F084
:102D500061FB07E09DED240B53EC102B51EC100BA5
:102D600000F0C2BC41EC100B5EE79DED240B51EC72
:102D7000100B00F0CBFDBAF1000FCDE90E0142D1EE
:102D80009FED710B46B3A6F1E040B0F17F600CD02F
:102D90005E4538D1002D00DAA7B3022F0CBF012009
:102DA0004FF0FF30FDF749FCDCE7002D01DD002C82
:102DB0000DDA002D01DD002C1FDB002D16DA002CB2
:102DC00014DB012F08BF9FED620B3FF42DAFB0EE77
:102DD0004A0AF0EE6A0A27E7022F18BF002D0CD02E
:102DE000012F0AD1002DFFF61FAF06E0002DB8BF5E
:102DF000002C08DA012F3FF417AFB0EE480AF0EECE
:102E0000680A11E71BE0012000EBE57050EA0701BA
:102E100015D0791EB0EE498AF0EE698A084308BFE2
:102E20009FED4D8B4E480025804570DD4D494E4845
:102E3000884514DDB0420DDB002C19DB2FE00120AA
:102E400000F05EFD16B0BDEC0E8B04B0BDE8F04D99
:102E500000F016BDB34502DC002C09DC1FE0864201
:102E600002DA002C1BDA03E05E452BDD002C16DDB8
:102E7000022000F045FD00F013FD8DED020B53EC38
:102E80001A2B51EC180BFDF7F7FACDE90001039965
:102E9000019861F31E0003909DED020BC4E6022031
:102EA00000F02EFD00F00CFD10EE901A18EE900AC6
:102EB0008DED020B8DED008B61F31E0003909DEDF7
:102EC000020BB1E69DED0E0B53EC192B51EC100BE0
:102ED000FDF7CCFA9FED260BCDE9080153EC102B42
:102EE0009DED080B51EC100BFDF7C6FA9FED221B70
:102EF00053EC112BFDF7BDFA9DED081B53EC112B84
:102F0000FDF7BAFA9FED1E1B53EC112B3CE08CE051
:102F1000FFFF1F00FFFF0F00000000000000F03F58
:102F20000000F03F0000F07F0000404301FCFFFF85
:102F3000000000000000F07F000000000000000022
:102F4000E6270000000000000000000000000080F4
:102F5000000000000000F0FF000000000000F0BFD3
:102F60000000E0410000F043FFFFEF3F00000000E1
:102F7000000000000000D03F555555555555D53F30
:102F8000000000000000E03FFDF773FA9DED080B24
:102F900041EC1A0B53EC102B51EC100BFDF76CFAB3
:102FA00053EC1A2BFDF768FA41EC1A0B9FEDFE0B60
:102FB00053EC102B9DED080B51EC100BFDF75CFA58
:102FC00041EC1B0B9FEDFA0B51EC1A0B53EC102B41
:102FD000FDF752FA41EC1A0B9FEDF70B53EC102B57
:102FE0009DED080B51EC100BFDF746FA53EC1A2B34
:102FF000FDF73CFA41EC1A0B51EC1B0B53EC1A2B6E
:10300000FDF793F90690CDE906519DED060B53ECC3
:103010001B2B51EC100BFDF729FA53EC1A2BFDF783
:1030200028FA41EC100B00F0A1B90020B6F5801F82
:103030000EDA9FEDE30B53EC102B9DED0E0B51ECD4
:10304000100BFDF719FACDE90E016FF034000E46B2
:1030500000EB2650A0F2FF37C6F31300DA4940F028
:103060007F6646F040568842D8BF002408DDD74925
:103070008142C8BF012403DC0024A6F580167F1C12
:10308000D348784400EBC4000F9690ED00CB9DED43
:103090000E0B53EC1C2B51EC100BFDF7E7F99DEDDB
:1030A0000E0B41EC1B0B53EC1C2B51EC100BFDF7E2
:1030B0003CF941EC100B51EC190B53EC102BFDF7C4
:1030C0004DFA41EC1D0B51EC1B0B53EC1D2BFDF786
:1030D000D3F941EC1A0BBF488DED10AB7844109535
:1030E00090ED000B4FF0005040EA660000EB84408A
:1030F0008DED080B00F5002009909DED080B53ECB9
:103100001C2B51EC100BFDF7B1F99DED0E1B53EC90
:10311000112BFDF7AEF941EC100B53EC102B9DED8C
:10312000100B51EC100BFDF7A7F99DED080B41ECCE
:103130001C0B53EC102B9DED100B51EC100BFDF7FD
:103140009BF953EC1B2BFDF794F953EC1C2BFDF76B
:103150008DF953EC1D2BFDF78FF941EC1C0B53EC53
:103160001A2B51EC1A0BFDF787F941EC1B0B9A480F
:103170000621B0EE4B0AF0EE6B0A784400F0E0FA5C
:10318000B0EE401AF0EE601AB0EE41DAF0EE61DA1D
:1031900053EC1B2B51EC1B0BFDF76EF953EC1D2B65
:1031A000FDF76AF99DED100B41EC1B0B53EC1A2B4C
:1031B00051EC100BFDF7B9F853EC1C2BFDF75CF943
:1031C00053EC1B2BFDF7B1F89DED100B41EC1B0BE5
:1031D00053EC102B51EC100BFDF74EF941EC1D0B8D
:1031E0009FED7FEB53EC1E2BFDF79FF853EC1B2B51
:1031F000FDF79BF80890CDE908519DED080B53ECC5
:103200001E2B51EC100BFDF731F953EC1D2BFDF784
:103210002DF953EC1B2BFDF72CF99DED080B41EC20
:103220001D0B53EC102B9DED100B51EC100BFDF70B
:1032300023F941EC1B0B53EC1A2B51EC1D0BFDF742
:103240001BF99DED080B41EC1A0B53EC102B51ECC4
:103250001C0BFDF711F953EC1A2BFDF766F841EC46
:103260001A0B51EC1B0B53EC1A2BFDF75EF80C906C
:10327000CDE90C519DED0C0B53EC1B2B51EC100BBD
:10328000FDF7F4F853EC1A2BFDF7F3F841EC1B0BA8
:103290009FED550B53EC102B9DED0C0B51EC100BCF
:1032A000FDF7EAF841EC1A0B9FED510B51EC1B0BAB
:1032B00053EC102BFDF7E0F841EC1B0B9FED4E0B90
:1032C00053EC102B9DED0C0B51EC100BFDF7D4F8CB
:1032D00053EC1B2BFDF729F841EC100B48487844C0
:1032E00000EBC40090ED001B51EC100B53EC112BC4
:1032F000FDF71BF841EC1B0B3846FDF79EF9CDE9B5
:10330000080153EC1B2B51EC1A0BFDF70EF841ECA6
:10331000100B3C48784400EBC40090ED00CB51EC1E
:10332000100B53EC1C2BFDF700F89DED081B53EC24
:10333000112BFCF7FAFF0690CDE906519DED080B25
:1033400053EC102B9DED060B51EC100BFDF78EF896
:1033500053EC1C2BFDF78AF853EC1A2BFDF786F87B
:1033600053EC1B2BFDF785F841EC100B9DED261B54
:1033700053EC102B8DED001B00959DED260B51ECB1
:10338000100BFDF779F89DED000B41EC1A0B53EC97
:10339000102B9DED260B51EC100BFDF767F89DED02
:1033A000061B53EC112B2FE0000000604715F73F80
:1033B000FE822B654715F73F44DF5DF80BAE543EA8
:1033C00000000000000040438E9803007AB60B0016
:1033D00062230000902300009A22000000000000F9
:1033E0000000000000000840000000E009C7EE3FB8
:1033F000FD033ADC09C7EE3FF5015B14E02F3EBE4A
:1034000026210000E0200000FDF736F853EC1A2BCF
:10341000FCF78BFF9DED060B41EC1A0B53EC102BC8
:103420009DED000B51EC100BFDF726F8CDE90C01DA
:103430009DED0C0B51EC1A0B53EC102BFCF775FFA8
:10344000CDE902010C46AA498C422FDB611A0843E0
:1034500018D19DED0C0B53EC102B9DED020B51EC94
:10346000100BFDF703F841EC1B0B9FEDA30B51EC88
:103470001A0B53EC102BFCF758FF53EC1B2BFDF7EA
:10348000F9F92DD2022000F03BFA00F009FA10EE13
:10349000901A18EE900A8DED020B8DED008B61F302
:1034A0001E0003909DED020BFFF7BEBB944A24F073
:1034B0000041914214D39349214408437FF4EFAC77
:1034C0009DED0C0B53EC102B9DED020B51EC100BF2
:1034D000FCF7CCFF53EC1A2BFDF7CCF97FF6DFACF1
:1034E00024F000408849894A002601EB205182429D
:1034F0002BDA481C4FF4801121FA00F02044844A52
:10350000C0F30A517A44A1F2FF3192ED000B814AD7
:103510008DED080BCA4020EA0202C0F3130040F40C
:103520008010C1F1140120FA01F60992002CB8BFF5
:1035300076429DED080B53EC102B9DED0C0B51ECDE
:10354000100BFCF793FFCDE90C019DED0C0B51EC3A
:103550001A0B53EC102BFCF7E8FE9FED6F0B089055
:10356000CDE9085153EC102B9DED080B51EC100BDD
:10357000FCF782FF41EC1B0B9FED690B53EC102B0A
:103580009DED080B51EC100BFCF776FF9DED0C0B3D
:1035900041EC1C0B53EC102B9DED080B51EC100B68
:1035A000FCF764FF53EC1A2BFCF763FF9FED5E1BE7
:1035B00053EC112BFCF760FF53EC1C2BFCF7B5FE12
:1035C00041EC1A0B51EC1B0B53EC1A2BFCF7ADFE24
:1035D000CDE902019DED020B53EC1B2B51EC100BBE
:1035E000FCF744FF53EC1A2BFCF743FF9DED020B55
:1035F00041EC1A0B53EC102B51EC100BFCF73CFF79
:10360000CDE908014A489DED080B0521784400F0FA
:1036100097F89DED081B51EC100B53EC112BFCF7A8
:103620002BFF9DED021B53EC112BFCF722FFCDE984
:1036300006019DED020B53EC1A2B51EC100BFCF71D
:103640001BFF53EC1A2BFCF770FE9FED3B0B41EC7C
:103650001A0B53EC102B9DED060B51EC100BFCF7E5
:1036600005FF9DED060B41EC1B0B53EC102B9DED64
:10367000020B51EC100BFCF7FFFE53EC1B2BFCF77D
:103680006DFF53EC1A2BFCF7F1FE9DED021B53EC82
:10369000112BFCF7EBFE53EC192BFCF7EAFECDE9FE
:1036A000020101EB065001150029C8BF039015DC8B
:1036B0009DED020B324651EC100BFDF7C3F8FFF7FE
:1036C000ECF9042808BF00F0FBF832469DED020B30
:1036D00051EC100BFDF7B6F8CDE902019DED020BA0
:1036E00051EC180B53EC102BFCF7C6FEFFF73ABB5E
:1036F0000000904000000000FE822B654715973CBB
:1037000000CC904000346F3F01FCFFFF0000E03F21
:10371000681F0000FFFF0F0000000000432EE63F7F
:10372000396CA80C615C20BEEF39FAFE422EE63FF0
:10373000381E0000000000000000000000000040F3
:1037400070B504462DED028B4D1E00EBC500B0EEAA
:10375000408AF0EE608A90ED000B35F0060017D03D
:1037600053EC182B51EC100BFCF786FE41EC100BC0
:103770006D1E04EBC50090ED001B51EC100B53ECDB
:10378000112BFCF7D2FD41EC100B35F00600E7D110
:10379000022D36D0042D1CD0062D1CBFBDEC028B93
:1037A00070BD53EC182B51EC100BFCF765FE94ED3B
:1037B0000A1B53EC112BFCF7B8FD53EC182BFCF74C
:1037C0005BFE94ED081B53EC112BFCF7AEFD41ECB6
:1037D000100B53EC182B51EC100BFCF74DFE94ED35
:1037E000061B53EC112BFCF7A0FD53EC182BFCF738
:1037F00043FE94ED040B53EC102BFCF796FD41ECCB
:10380000100B53EC182B51EC100BFCF735FE94ED1C
:10381000021B53EC112BFCF788FD53EC182BFCF723
:103820002BFE94ED001B53EC112BFCF77EFDBDEC41
:10383000028B41EC100B70BD9FED070B10B553ECE4
:10384000102B9FED070B51EC100BFCF787FE41ECA2
:10385000100B10BD00000000000000000000000080
:10386000000000000000F03F10B553EC112B51ECAC
:10387000100BFCF75AFD41EC100B10BD00000000CE
:103880009FED050B10B553EC102B51EC100BFCF712
:1038900065FE41EC100B10BD0000000000000000B0
:1038A0009FED050B10B553EC102B51EC100BFCF7F2
:1038B000E3FD41EC100B10BD0000000000000070A3
:1038C0009FED050B10B553EC102B51EC100BFCF7D2
:1038D000D3FD41EC100B10BD0000000000000010F3
:1038E00002E008C8121F08C1002AFAD170477047C9
:1038F000002001E001C1121F002AFBD17047000027
:103900000149086070470000C000002082B0CDE986
:10391000000121F0004001909DED000B02B051EC40
:10392000100B704708B5FDF7E9F9FEF73DFDFEF70E
:1039300043FCFEF7D1FCFEF75DFCFEF78FFCFEF7C3
:10394000E7FCFEF7ADFC012269460A48FEF756F98E
:10395000012269460848FEF751F90848FDF7F2FDD3
:103960000748FDF7EFFD00F01DF8FEF70DFC00F035
:103970002DF8FEE79C010020E4010020C400002097
:103980000C01002010B50146EFF3058010B16FF077
:10399000050404E0002411B1084600F0BDFE2046F5
:1039A00010BD0000EFF30580002802D06FF0050085
:1039B00070470548016811B14FF0FF307047012191
:1039C00001600020704700006800002010B5EFF390
:1039D0000580002802D06FF0050010BD074801687F
:1039E000012902D04FF0FF3010BD054A00211170AF
:1039F0000221016000F0FEFE002010BD68000020E2
:103A00001FED00E02DE9F04385B00B464FF00007B5
:103A10000497EFF3058100294ED100284CD0802473
:103A20004FF0180C8946491E52B3166806B1B146CC
:103A3000956905B1AC46ACF10105382D03D2157975
:103A400015F0010F03D005B00020BDE8F0835569E3
:103A500005B1AC08D2F80880B8F1000F07D0D668DD
:103A60005C2E04D3166916B10DB1012109E0B8F13D
:103A7000000F06D1D56825B9156915B9002100E0F8
:103A80000021012901D061B116E09168126901920B
:103A90000291CDF800C02246494601F07BFA04901D
:103AA0000AE004A90191A2B2CDF800C0494601F094
:103AB0003BFA012800D00497049805B0BDE8F083D4
:103AC0002DE9F04104460F46134EF5683068001D9D
:103AD00000F0E5FCB4F1FF3F07D137B13068BDE835
:103AE000F041011D0D4800F02CBD2C4430684460AD
:103AF000AC4206D23068011DB06BBDE8F04100F069
:103B000005BD3068011D706B00F000FDB06A844295
:103B100000D2B462BDE8F0811800002064070020E4
:103B200070B5044600F01AFD1C4DA868401CA86042
:103B3000286810B1686938B10CE02C60A8680128C9
:103B400008D100F093F905E02868E16AC06A88426C
:103B500000D82C60686A401C68626064E06A296969
:103B6000884200D928610E4900EB800001EB8000FB
:103B7000211D00F0E6FC00F011FD686900280CD062
:103B80002868E16AC06A884207D206494FF080502F
:103B90000860BFF34F8FBFF36F8F70BD1800002018
:103BA000B402002004ED00E038B500F0D7FC0F4C63
:103BB0002068B8B90E4800F09BFC0E4800F098FC55
:103BC0000B48E0601430206100200B4B009003F1A3
:103BD000500210210A2000F02BFF206010B107A135
:103BE00000F060FDBDE8384000F0D8BC5400002073
:103BF000680800207C08002078070020546D72516E
:103C00000000000070B50D4C6068002815D00C4E07
:103C100000F0A4FCF068C568281D00F040FCA06816
:103C2000401EA0606068401E606000F0B7FC28463F
:103C300000F051F860680028EAD170BD180000203B
:103C4000500700200B46026C002A0CD0C1681144BA
:103C5000C160D0F808C0614501D30168C160C16886
:103C60001846FCF73EBB70472DE9F0410446164666
:103C70000027A56B226C002A10D0C6B1E068FCF7C3
:103C800030FBE168206C091AE1602268914202D29F
:103C9000A168081AE060022E16D017E02068A8B9C3
:103CA000A06801F021FA07460020A0600EE06068DD
:103CB000FCF717FB216C606808446060A1688842CB
:103CC00004D32068606001E005B16D1E681CA0632C
:103CD0003846BDE8F08110B5044694F85910002923
:103CE0000BD0012911D0022914D0502080F3118863
:103CF000BFF34F8FBFF36F8FFEE7206B00F064FCC4
:103D00002046BDE8104000F05FBC2046BDE81040F2
:103D100000F05ABC10BD00000749CA6811680029AC
:103D200004D00021016019B1002070470121F9E79A
:103D3000D068006870470000540000204FF47051B4
:103D4000104810F0070F06D0C01D20F007000D49E5
:103D5000411AC1F570510C4A1060002353600144B0
:103D6000083921F00701183A11604B600B600B1AFB
:103D7000436001604068906050604FF000405061C7
:103D800070470000480F002084000020074E4FF0CD
:103D90008054074DFFF736FF30680128FAD92C60B0
:103DA000BFF34F8FBFF36F8FF4E70000B402002022
:103DB00004ED00E070B51D46049C002909D0226086
:103DC000E06321640121204600F06AFE84F84C5033
:103DD00070BD2460F4E72DE9F05F82460B9F0A9DD9
:103DE0000C9C0E4690469B464FEA8801A522206B0C
:103DF000FCF789FA206BA8F1010100EB810020F0AB
:103E000007094FF0000866B100202218315C82F8E3
:103E10003410315C11B1401C1028F6D384F8438073
:103E200001E084F83480382D00D33725E562E5645D
:103E3000C4F85080201D00F066FB04F1180000F06B
:103E400062FB2461C5F13800A0616462C4F854804B
:103E500084F858805A465146484600F0C5FA20601A
:103E6000002F00D03C60BDE8F09F000070B500243A
:103E70000F4D04EB840005EB800000F039FB641C5F
:103E8000382CF6D30B4800F033FB0B4800F030FB26
:103E90000A4800F02DFB0A4800F02AFB094800F010
:103EA00027FB0948034941631431816370BD000059
:103EB000B402002014070020280700203C0700203F
:103EC00050070020640700201800002010B4144997
:103ED00000E011460A688242FBD34B6803EB010CF9
:103EE000844503D140681844486008460C68D0F8FF
:103EF00004C00CEB0003A3420CD10A4B1B689A428E
:103F000006D05268624442600A681268026002E0A9
:103F1000036000E00260814200D0086010BC70477E
:103F2000840000206C00002010B500244160006176
:103F3000DFF838C091420BD8D11A8269914201D37F
:103F4000012410E0011DDCF8100000F0DFFA0AE0A7
:103F50009A4203D2994201D3012404E0011DDCF806
:103F60000C0000F0D3FA204610BD000054000020E1
:103F700010B5044600F0F2FAA06B20B1002400F066
:103F80000DFB204610BD0124F9E710B5044600F0F2
:103F9000E5FAA06BE16B884201D1012400E0002426
:103FA00000F0FCFA204610BDF8B505460E4617484D
:103FB000C068C068C468201D00F071FA94F8280039
:103FC00010F0040F18D0A0692B4641193246204644
:103FD000FFF7AAFFA0B100200346014600902A4641
:103FE000204601F097F958B9502080F31188BFF3AB
:103FF0004F8FBFF36F8FFEE720F0010084F8280099
:10400000216A01B02046BDE8F04008475400002076
:1040100030B587B0414D002202A9286800F0A0FE0B
:10402000002875D00298002803DA039A05990498AD
:1040300090470298002864DB049C606910B1201D41
:1040400000F02DFA01A800F0B3F8024602980A2801
:1040500057D2DFE800F00505052F364D05052F3650
:1040600094F8280040F0010084F828000398A16922
:10407000034601442046FFF757FF002841D0216A3C
:104080002046884794F8280010F0040F39D000200B
:1040900000900398A169002342181946204601F0B8
:1040A00039F970BB502080F31188BFF34F8FBFF3F5
:1040B0006F8FFEE794F8280020F0010084F82800B4
:1040C0001FE094F8280040F0010084F828000398CD
:1040D000A06128B1811813462046FFF725FF10E0A4
:1040E000502080F31188BFF34F8FBFF36F8FFEE72F
:1040F00094F8280010F0020F0CD020F0010084F892
:104100002800002202A9286800F02AFE002889D190
:1041100007B030BD204600F057FAF2E75400002007
:10412000F8B505460C4600F0ADFB684600F040F8D7
:104130000646009810B101F053F8F8BD44B9B542F5
:1041400006D801F04DF831462846FFF72DFFF8BD9F
:104150000C481CB10169096891B10024A91B2246D1
:10416000006800F0B3FA01F03BF80028EFD10649EF
:104170004FF080500860BFF34F8FBFF36F8FF8BDD3
:104180000124EBE75400002004ED00E00749486BF0
:104190000068002805D0486BC068C0684068886225
:1041A00070474FF0FF308862704700001800002011
:1041B00070B5044600F02CFF0546074EB0688542F6
:1041C00004D200F00BF80120206001E00020206004
:1041D000B560284670BD000054000020F8B51C4EA4
:1041E000F0680068002826D00027F068C0680568DD
:1041F000C468201D00F053F9216A2046884794F8CE
:10420000280010F0040F12D0A0692844A84206D953
:1042100060602461211DF06800F078F907E0002358
:104220002A4619462046009701F074F840B1F0681C
:1042300000680028D9D1F0683169F1603061F8BDBB
:10424000502080F31188BFF34F8FBFF36F8FFEE7CD
:10425000540000200A484068B0F1FF3F07D05020CA
:1042600080F31188BFF34F8FBFF36F8FFEE75020AD
:1042700080F31188BFF34F8FBFF36F8FFEE700000D
:104280008C00002082B001A8FFF746FD0199FFF7DE
:1042900047FFFFF7BDFEF6E770B5044600F05EF994
:1042A00094F94550002D0CDD606A50B104F12400F2
:1042B00000F05AFF08B100F05FFA681E45B2002D09
:1042C000F2DC4FF0FF3684F8456000F067F900F04B
:1042D00045F994F94450002D0CDD206950B104F1EA
:1042E000100000F041FF08B100F046FA681E45B228
:1042F000002DF2DC84F84460BDE8704000F04EB957
:104300002DE9F0410546002600F0BCFA344F38682C
:1043100008B9FFF713FD7869054251D19DB1083501
:1043200015F0070F0FD005F00700C0F10800054495
:1043300015F0070F07D0502080F31188BFF34F8F7F
:10434000BFF36F8FFEE7002D3AD07868854237D8EB
:1043500024490846046801E0214604466068A842F2
:1043600002D220680028F7D13868844228D0086833
:1043700000F10806206808606068411B10290FD909
:10438000601910F0070F07D0502080F31188BFF399
:104390004F8FBFF36F8FFEE741606560FFF796FDBB
:1043A00061687868401A7860BA68904200D2B86054
:1043B00078690843606000202060F868401CF8605D
:1043C00000F00EFF16F0070F07D0502080F3118881
:1043D000BFF34F8FBFF36F8FFEE73046BDE8F0812C
:1043E0006C00002084000020001F4FF080730360E9
:1043F000001F21F001010160001F05490160143810
:104400000260001F6FF00201016020387047000059
:104410005542000800B52DED048B83B041EC190B1B
:10442000FCF752FA41EC180B18EE100A18EE901A2D
:104430008DED008B002818BF0120084320F00040BC
:10444000C0F17F6000F1E040C00F14D019EE101AE7
:1044500019EE900A8DED009B002918BF0121084339
:1044600020F00040C0F17F6000F1E040C00F04BFC9
:104470000120FFF745FA51EC180B03B0BDEC048B9B
:1044800000BD30B5044618061304DA17034342EAA8
:10449000E0720802C11718431143204330BD01697F
:1044A000436882689A60836842685A604A688242B8
:1044B00001D182684A60002202610868401E0860DB
:1044C00008687047034B036003F15C0008608020BC
:1044D0001060704790080020044B036003F15C00FB
:1044E00008604FF48070106070470000EC0A0020F4
:1044F00000F1080141604FF0FF328260C16001614C
:1045000000210160704700210161704710B4D1F8AB
:1045100000C0BCF1FF3F02D000F1080202E00269D6
:1045200004E01A4653681C686445FAD953684B6026
:1045300099608A60516008610168491C016010BC83
:10454000704742684A6093688B60936859609160D5
:1045500008610168491C016070470000502080F329
:104560001188BFF34F8FBFF36F8F0A494868401C13
:10457000486001280CD10848006810F0FF0F07D0F0
:10458000502080F31188BFF34F8FBFF36F8FFEE78A
:10459000704700008C00002004ED00E009494868E5
:1045A000002806D0401E4860002801D180F3118801
:1045B0007047502080F31188BFF34F8FBFF36F8F88
:1045C000FEE700008C00002070B500282AD0A0F182
:1045D0000804154D60686969084207D1502080F3CE
:1045E0001188BFF34F8FBFF36F8FFEE722683AB198
:1045F000502080F31188BFF34F8FBFF36F8FFEE71A
:104600008843606000F03EF960686968084468604B
:104610002046FFF75BFC2869401C2861BDE870401C
:1046200000F0DEBD70BD00006C0000204FF0E02007
:1046300000210161816105494FF47A720968B1FB7B
:10464000F2F1491E41610721016170471400002009
:1046500010B5FBF7FFFD114910280ED300F1E02043
:1046600090F8F0030A78904207D2502080F3118826
:10467000BFF34F8FBFF36F8FFEE70948006889686B
:1046800000F4E060884207D9502080F31188BFF31E
:104690004F8FBFF36F8FFEE710BD00008C0000202E
:1046A0000CED00E00022084B53F832C0BCF1000FC3
:1046B00003D0521C082AF7D3704743F8321003EB9B
:1046C000C2014860704700007402002070B50446C3
:1046D0000D461646FFF742FF94F94400B0F1FF3F44
:1046E0004FF0000001D184F8440094F94510B1F175
:1046F000FF3F01D184F84500FFF750FFA06B28B9B8
:104700003246294604F1240000F056F82046BDE860
:104710007040FFF7C1BD000010B502460020002A1E
:1047200012D00F48006B38B1502080F31188BFF3CE
:104730004F8FBFF36F8FFEE700F0A4F80021104603
:10474000FFF7BEF900F04CFD002807D105494FF0F6
:1047500080500860BFF34F8FBFF36F8F10BD000014
:104760001800002004ED00E002490A6A0260C968EE
:10477000416070471800002001490120C86170475E
:104780001800002010B50C4600280BD0094A12680A
:1047900002F11801FFF7BAFE2046BDE810400121E2
:1047A000FFF78EB9502080F31188BFF34F8FBFF30E
:1047B0006F8FFEE71800002070B50D4614460028E4
:1047C0000DD00B4909681831FFF7BBFE0CB14FF053
:1047D000FF3521462846BDE87040FFF771B95020EB
:1047E00080F31188BFF34F8FBFF36F8FFEE7000098
:1047F0001800002030B587B000250695059504AA5D
:1048000005A906A8FFF75EFE06980599019102909A
:104810000023009517A11948049A00F0BBFB184C1F
:10482000E06208B1012000E00020012801D100F081
:104830003DFD01280AD0B0F1FF3F19D1502080F38F
:104840001188BFF34F8FBFF36F8FFEE7502080F3C7
:104850001188BFF34F8FBFF36F8F4FF0FF30A0620F
:1048600001206061E56007B0BDE8304000F048B865
:1048700007B030BD49444C45000000008D3D0008A4
:10488000180000200248016B491C016370470000BA
:1048900018000020184B186B002802D00120D861A6
:1048A00070470020D8611869144900EB800251F864
:1048B00022203AB9C0B1401E00EB800251F82220FC
:1048C000002AF7D000EB800201EB82014A685268AF
:1048D0004A6001F1080C624501D152684A6049689A
:1048E000C968196018617047502080F31188BFF3C0
:1048F0004F8FBFF36F8FFEE718000020B402002037
:1049000010B582B038480168384A914207D150202A
:1049100080F31188BFF34F8FBFF36F8FFEE70068FE
:104920003349884207D1502080F31188BFF34F8F5D
:10493000BFF36F8FFEE72F4908780190FF200870C2
:10494000087800909DF800009DF8002000F0F0002D
:10495000904207D0502080F31188BFF34F8FBFF3F0
:104960006F8FFEE79DF80000234C00F05000207090
:104970000720A0609DF8000010F0800F0BD0A06809
:10498000401EA0609DF80000400000909DF80000CF
:1049900010F0800FF3D1A068032807D0502080F3D7
:1049A0001188BFF34F8FBFF36F8FFEE74FF4407056
:1049B000A060019808701148016841F4700101601D
:1049C000016841F070410160FFF730FE0020606037
:1049D000FBF708FC0A48016841F040410160FBF721
:1049E000EDFB02B0002010BD00ED00E071C20F41F0
:1049F00070C20F4100E400E08C00002020ED00E0D8
:104A000034EF00E010B5502080F31188BFF34F8FD2
:104A1000BFF36F8F00F002FB18B104494FF08050D4
:104A20000860002080F3118810BD000004ED00E054
:104A300038B5049D002804D05BB102B189B1C2B180
:104A400020E0502080F31188BFF34F8FBFF36F8FAA
:104A5000FEE7502080F31188BFF34F8FBFF36F8FB5
:104A6000FEE7502080F31188BFF34F8FBFF36F8FA5
:104A7000FEE739B1502080F31188BFF34F8FBFF3A9
:104A80006F8FFEE74FF0500CCDF800C01C4601239D
:104A900084F846302B460094FFF78CF9204638BD49
:104AA00070B504460D46002C25D0FFF757FD226C4B
:104AB000E16B206801FB0200A0600020A063206879
:104AC0006060E16B226C2068491E01FB0200E0601F
:104AD0004FF0FF3084F8440084F845009DB104F1A4
:104AE0001000FFF705FD04F12400FFF701FDFFF7BB
:104AF00055FD012070BD502080F31188BFF34F8F0A
:104B0000BFF36F8FFEE720690028F0D004F110009A
:104B100000F02AFB0028EAD004494FF080500860DA
:104B2000BFF34F8FBFF36F8FE1E7000004ED00E0AC
:104B30002DE9FF4782B004468A461F460025002C17
:104B400003D0BAF1000F08D011E0502080F3118893
:104B5000BFF34F8FBFF36F8FFEE7206C38B150204B
:104B600080F31188BFF34F8FBFF36F8FFEE7022FE3
:104B70000AD1E06B012807D0502080F31188BFF3E1
:104B80004F8FBFF36F8FFEE700F034FA48B90498F7
:104B900038B1502080F31188BFF34F8FBFF36F8F70
:104BA000FEE700264FF08058DFF8F090FFF7D6FCC4
:104BB000A06BE16B884205D3022F03D0049808B3A1
:104BC00035B329E03A4651462046FFF74DF8616A71
:104BD00059B104F1240000F0C7FA68B1C9F80080A7
:104BE000BFF34F8FBFF36F8F06E028B1C9F8008085
:104BF000BFF34F8FBFF36F8FFFF7D0FC06B00120DC
:104C0000BDE8F087FFF7CAFC06B00020BDE8F087DA
:104C10006846FFF7A9FD0125FFF7C0FCFFF732FE4C
:104C2000FFF79CFC94F94400B0F1FF3F01D184F8F8
:104C3000446094F94500B0F1FF3F01D184F845602C
:104C4000FFF7ACFC04A9684600F02EF940B12046FD
:104C5000FFF722FB00F0C4FA06B00020BDE8F087A1
:104C60002046FFF792F990B104F110000499FFF784
:104C700089FD2046FFF710FB00F0B2FA002895D11D
:104C8000C9F80080BFF34F8FBFF36F8F8EE72046C8
:104C9000FFF702FB00F0A4FA88E7000004ED00E053
:104CA0002DE9F0470446894617461E46002C03D0DE
:104CB000B9F1000F08D011E0502080F31188BFF344
:104CC0004F8FBFF36F8FFEE7206C38B1502080F319
:104CD0001188BFF34F8FBFF36F8FFEE7022E0AD10B
:104CE000E06B012807D0502080F31188BFF34F8F6D
:104CF000BFF36F8FFEE7FFF7ABFC5020EFF3118897
:104D000080F31188BFF34F8FBFF36F8FA06BE16B00
:104D1000884206D3022E04D0002088F31188BDE813
:104D2000F08794F94550A06B324649462046FEF77D
:104D30009BFFB5F1FF3F04D0681C84F845000120BB
:104D4000EBE7606A0028FAD004F1240000F00CFAC6
:104D50000028F4D0002FF2D001203860EFE70000E7
:104D60002DE9F74783B004468A460025002C03D07E
:104D7000BAF1000F08D011E0502080F31188BFF382
:104D80004F8FBFF36F8FFEE7206C38B1502080F358
:104D90001188BFF34F8FBFF36F8FFEE700F02AF942
:104DA00048B9059838B1502080F31188BFF34F8F70
:104DB000BFF36F8FFEE700274FF08058DFF8E490D5
:104DC000FFF7CCFBA66BC6B151462046FEF73AFF73
:104DD000701EA063206950B104F1100000F0C4F906
:104DE00028B1C9F80080BFF34F8FBFF36F8FFFF773
:104DF000D5FB06B00120BDE8F087059808B135B1B4
:104E000009E0FFF7CBFB06B00020BDE8F08768465D
:104E1000FFF7AAFC0125FFF7C1FBFFF733FDFFF702
:104E20009DFB94F94400B0F1FF3F01D184F8447038
:104E300094F94500B0F1FF3F01D184F84570FFF7C8
:104E4000ADFB05A9684600F02FF868B12046FFF7D2
:104E500023FA00F0C5F92046FFF78AF80028AFD002
:104E600006B00020BDE8F0872046FFF781F890B13A
:104E700004F124000599FFF785FC2046FFF70CFAA2
:104E800000F0AEF900289BD1C9F80080BFF34F8F26
:104E9000BFF36F8F94E72046FFF7FEF900F0A0F90B
:104EA0008EE7000004ED00E070B505460C46002DCD
:104EB00015D0E4B1FFF752FBDFF868C0DCF80C0056
:104EC0006B68C11A2268B2F1FF3F18D02E68DCF877
:104ED00020C0664515D0834213D801241DE0502020
:104EE00080F31188BFF34F8FBFF36F8FFEE7502021
:104EF00080F31188BFF34F8FBFF36F8FFEE700245D
:104F00000BE08A4206D9501A20602846FFF72CFC95
:104F1000002402E0002020600124FFF73FFB204630
:104F200070BD0000180000202DE9F04F85B08146CB
:104F30000F9F0E9E8A4690469B464FEA8800FFF7D9
:104F4000DFF9054628000AD05C20FFF7D9F90446AE
:104F50000CB1256304E02846FFF736FB00E000248F
:104F60009CB1002084F8590003905B4642465146AC
:104F70000197009602944846FEF72DFF2046FEF763
:104F8000CFFD05B00120BDE8F08F05B04FF0FF3038
:104F9000BDE8F08F70B586B00646DDF828C00C9CE1
:104FA0000B98002816D0ECB15C25049520630220F4
:104FB00084F85900002005AD0390CDF800C001959C
:104FC00002943046FEF707FF2046FEF7A9FD05983C
:104FD00006B070BD502080F31188BFF34F8FBFF330
:104FE0006F8FFEE7502080F31188BFF34F8FBFF320
:104FF0006F8FFEE705484169002903D0006B18B1A7
:1050000000207047012070470220704718000020E0
:105010000148C06870470000180000202DE9F041E9
:1050200000262F4F386B002805D0B869401CB861A6
:105030003046BDE8F081F868451CFD609DB9786B8D
:10504000006838B1502080F31188BFF34F8FBFF351
:105050006F8FFEE7786BB96B7963B863386A401C71
:105060003862FFF793F8B86ADFF8788085420DD38D
:10507000786B006838B1786BC068C4686068854236
:1050800012D2B86202E04FF0FF30B8623868C06AEE
:1050900000EB800058F82000012800D90126F869AB
:1050A0000028C5D00126C3E7201DFFF7F8F9A06A44
:1050B00018B104F11800FFF7F2F9E16A386981428A
:1050C00000D9396101EB810008EB8000211DFFF759
:1050D00038FAE06A3968C96A8842C9D30126C7E745
:1050E00018000020B402002070B5044600210028FA
:1050F00033D01B4D2868844207D0502080F311889C
:10510000BFF34F8FBFF36F8FFEE7206D38B1401EA6
:105110002065E36CE26A9A421FD040B11DE0502046
:1051200080F31188BFF34F8FBFF36F8FFEE7201D11
:10513000FFF7B5F9E06CE062C0F13800A061E06A09
:105140002969884200D92861064900EB800001EBFB
:105150008000211DFFF7F5F90121084670BD000010
:1051600018000020B402002070B5C068C468002C8C
:1051700014D004F11800FFF792F9164D286BA8B16E
:1051800004F118011448FFF7DCF9E06A2968C96ADC
:1051900088421CD901200121E96170BD502080F3B3
:1051A0001188BFF34F8FBFF36F8FFEE7201DFFF70E
:1051B00076F9E06A2969884200D92861074900EB3D
:1051C000800001EB8000211DFFF7BBF9DDE7002027
:1051D00070BD0000180000203C070020B402002031
:1051E0002DE9F047002400272D4D286B002807D01B
:1051F000FFF7B4F9286B401E2863286B40B149E0E3
:10520000502080F31188BFF34F8FBFF36F8FFEE7FD
:10521000A86800283ED0234E30684FF0010800B344
:10522000A6F59169F068C46804F11800FFF737F932
:10523000201DFFF734F9E06A2969884200D9286106
:1052400000EB800009EB8000211DFFF77AF9E06A8E
:105250002968C96A884201D3C5F81C8030680028D3
:10526000E0D10CB1FEF792FFAC694CB1FFF7D6FE6E
:1052700008B1C5F81C80641E002CF7D10020A8617D
:10528000E86938B10127084938070860BFF34F8F34
:10529000BFF36F8FFFF782F93846BDE8F087000053
:1052A000180000203C07002004ED00E030B587B076
:1052B0000024FEF779FC134D2868B0B10020069059
:1052C000059004AA05A906A8FFF706F9059906980E
:1052D000022200920191029000230BA10C48049A33
:1052E000FFF758FE686000B1012414B107B02046F2
:1052F00030BD502080F31188BFF34F8FBFF36F8F05
:10530000FEE7000054000020546D722053766300C5
:1053100085420008F0B585B084460A9D16461F46B2
:105320000022BCF1000F14D0164C206800B300918D
:105330000196CDF808C006291BDAFFF75BFE0228AC
:105340000FD000231A4669462068FFF7F1FB02469A
:1053500015E0502080F31188BFF34F8FBFF36F8F9C
:10536000FEE700232A4669462068FFF7E1FB024674
:1053700005E000233A466946FFF792FC024605B075
:105380001046F0BD540000208454000800000000C6
:10539000000000000000000000000000000200000B
:1053A0001800000000000000000000007854000811
:1053B00000000000000000000000000000000000ED
:1053C00000040000080000000000000000000000D1
:1053D00000000000000000000102030406070809A5
:1053E0000000000001020304000000000000F03F84
:1053F000000000000000F83F000000000000000076
:105400000000004003B8E23F000000000000000080
:1054100006D0CF43EBFD4C3E033333333333E33F0E
:10542000FFAB6FDBB66DDB3F4D268F515555D53F3A
:1054300001411DA96074D13F65DBC9934A86CD3F08
:10544000EF4E454A287ECA3F3E5555555555C53FF6
:1054500093BDBE166CC166BF2CDE25AF6A56113FE8
:10546000F16BD2C541BDBBBED0A4BE726937663EEA
:1054700000000000000000006D795461736B303251
:105480000000000064656661756C745461736B00A4
:10549000B054000800000020C4000000E0380008FC
:1054A00074550008C4000020DC4F0000F0380008EC
:1054B00000000000000000000100000010000000DB
:1054C000000000000024F4000000000000000000C4
:1054D00000000000000000000000000000000000CC
:1054E00000000000000000000000000000000000BC
:1054F00000000000000000000000000000000000AC
:10550000000000000000000000000000000000009B
:10551000000000000000000000000000000000008B
:10552000000000000000000000000000000000007B
:10553000000000000000000000000000000000006B
:10554000AAAAAAAA000000000000000000000000B3
:10555000000000000000000000000000000000004B
:105560000000000000000000000000000000807F3C
:045570000000000037
:040000050800018965
:00000001FF
